{
  "contractName": "News",
  "abi": [
    {
      "constant": false,
      "inputs": [
        {
          "name": "news",
          "type": "string"
        }
      ],
      "name": "setLatest",
      "outputs": [
        {
          "name": "",
          "type": "string"
        }
      ],
      "payable": false,
      "stateMutability": "nonpayable",
      "type": "function"
    },
    {
      "inputs": [],
      "payable": false,
      "stateMutability": "nonpayable",
      "type": "function",
      "constant": false,
      "name": "getLatest",
      "outputs": [
        {
          "name": "",
          "type": "string"
        }
      ]
    },
    {
      "inputs": [],
      "payable": false,
      "stateMutability": "nonpayable",
      "type": "constructor"
    }
  ],
  "bytecode": "0x6060604052341561000f57600080fd5b606060405190810160405280602181526020017f48757272612120446965204e6577732077657264656e20616e67657a6569677481526020017f2e0000000000000000000000000000000000000000000000000000000000000081525060009080519060200190610081929190610087565b5061012c565b828054600181600116156101000203166002900490600052602060002090601f016020900481019282601f106100c857805160ff19168380011785556100f6565b828001600101855582156100f6579182015b828111156100f55782518255916020019190600101906100da565b5b5090506101039190610107565b5090565b61012991905b8082111561012557600081600090555060010161010d565b5090565b90565b6102e38061013b6000396000f30060606040526004361061004c576000357c0100000000000000000000000000000000000000000000000000000000900463ffffffff16806323975b8214610051578063c36af460146100ae575b600080fd5b341561005c57600080fd5b6100ac600480803590602001908201803590602001908080601f0160208091040260200160405190810160405280939291908181526020018383808284378201915050505050509190505061013c565b005b34156100b957600080fd5b6100c1610156565b6040518080602001828103825283818151815260200191508051906020019080838360005b838110156101015780820151818401526020810190506100e6565b50505050905090810190601f16801561012e5780820380516001836020036101000a031916815260200191505b509250505060405180910390f35b80600090805190602001906101529291906101fe565b5050565b61015e61027e565b60008054600181600116156101000203166002900480601f0160208091040260200160405190810160405280929190818152602001828054600181600116156101000203166002900480156101f45780601f106101c9576101008083540402835291602001916101f4565b820191906000526020600020905b8154815290600101906020018083116101d757829003601f168201915b5050505050905090565b828054600181600116156101000203166002900490600052602060002090601f016020900481019282601f1061023f57805160ff191683800117855561026d565b8280016001018555821561026d579182015b8281111561026c578251825591602001919060010190610251565b5b50905061027a9190610292565b5090565b602060405190810160405280600081525090565b6102b491905b808211156102b0576000816000905550600101610298565b5090565b905600a165627a7a72305820315f0bedaab269596f2f0b9dd93ebde5ae5a69a6810721662743c65f21eb9f180029",
  "source": "pragma solidity ^0.4.2;\n\ncontract News {\n\tstring private latest;\n\n\tfunction News() {\n\t\tlatest = \"Hurra! Die News werden angezeigt.\";\n\t}\n\n\tfunction getLatest() public returns (string) {\n\t\treturn latest;\n\t}\n\n\tfunction setLatest(string news) public {\n\t\tlatest = news;\n\t}\n}\n",
  "sourcePath": "/Users/daniel/Library/Mobile Documents/com~apple~CloudDocs/Projekte/Truffle Projects/News Block/contracts/News.sol",
  "compiler": {
    "name": "solc",
    "version": "0.4.18+commit.9cf6e910.Emscripten.clang"
  },
  "schemaVersion": "1.0.1",
  "updatedAt": "2017-11-19T15:49:05.774Z"
}